:020000040800F2
:1000000000300020F13A0008393B0008393B000875
:10001000393B0008393B0008393B0008000000006C
:10002000000000000000000000000000393B000854
:10003000393B000800000000393B0008393B00084C
:1000400000000000000000000000000000000000B0
:1000500000000000000000000000000000000000A0
:100060000000000000000000000000000000000090
:100070000000000000000000000000000000000080
:100080000000000000000000000000000000000070
:100090000000000000000000000000000000000060
:1000A0000000000000000000000000000000000050
:1000B0000000000000000000000000000000000040
:1000C0000000000000000000000000000000000030
:1000D0000000000000000000000000000000000020
:1000E0000000000000000000000000000000000010
:1000F0000000000000000000000000000000000000
:1001000000000000000000000000000000000000EF
:1001100000000000000000000000000000000000DF
:1001200000000000000000000000000000000000CF
:1001300000000000000000000000000000000000BF
:1001400000000000000000000000000000000000AF
:10015000000000000000000000000000000000009F
:10016000000000000000000000000000000000008F
:10017000000000000000000000000000000000007F
:08018000000000000000000077
:100190000348044B834202D0034B03B11847704716
:1001A00064000020640000200000000005480649AB
:1001B0000B1AD90F01EBA301491002D0034B03B175
:1001C0001847704764000020640000200000000011
:1001D00010B5064C237843B9FFF7DAFF044B13B18F
:1001E0000448AFF300800123237010BD6800002095
:1001F000000000003C3B000808B5044B1BB104495B
:100200000448AFF30080BDE80840CFE700000000DD
:100210006C0000203C3B0008014B1868704700BF91
:100220000000002070B50D4E0D4D761BB61006D0A7
:10023000002455F8043B01349847A642F9D1094EF1
:10024000094D761B03F07AFCB61006D0002455F851
:10025000043B01349847A642F9D170BD943C000894
:10026000943C0008983C0008943C0008024B01466E
:10027000186800F055B900BF00000020024B01468D
:10028000186800F0EFB800BF00000020844641EA83
:10029000000313F003036DD1403A41D351F8043BFE
:1002A00040F8043B51F8043B40F8043B51F8043B50
:1002B00040F8043B51F8043B40F8043B51F8043B40
:1002C00040F8043B51F8043B40F8043B51F8043B30
:1002D00040F8043B51F8043B40F8043B51F8043B20
:1002E00040F8043B51F8043B40F8043B51F8043B10
:1002F00040F8043B51F8043B40F8043B51F8043B00
:1003000040F8043B51F8043B40F8043B51F8043BEF
:1003100040F8043B51F8043B40F8043B403ABDD25E
:10032000303211D351F8043B40F8043B51F8043B00
:1003300040F8043B51F8043B40F8043B51F8043BBF
:1003400040F8043B103AEDD20C3205D351F8043B8F
:1003500040F8043B043AF9D2043208D0D2071CBF5B
:1003600011F8013B00F8013B01D30B880380604684
:10037000704700BF082A13D38B078DD010F00303FA
:100380008AD0C3F10403D21ADB071CBF11F8013B6A
:1003900000F8013B80D331F8023B20F8023B7BE7B9
:1003A000043AD9D3013A11F8013B00F8013BF9D2E4
:1003B0000B7803704B7843708B788370604670477E
:1003C000830730B548D0541E002A3FD0CAB2034636
:1003D00001E0013C3AD303F8012B9D07F9D1032C2E
:1003E0002DD9CDB245EA05250F2C45EA054536D96C
:1003F000A4F1100222F00F0C03F1200EE6444FEAA4
:10040000121C03F1100242E9045542E90255103270
:100410007245F8D10CF1010214F00C0F03EB02123B
:1004200004F00F0C13D0ACF1040323F003030433E6
:10043000134442F8045B9342FBD10CF003042CB14B
:10044000CAB21C4403F8012B9C42FBD130BD644668
:100450001346002CF4D1F9E703461446BFE71A46C9
:10046000A446E0E7002951D038B551F8043C0C1FF0
:10047000002BB8BFE418054600F0AEF9274A136810
:100480002BB1A3420CD92168601883422CD0636041
:1004900028461460BDE8384000F0A0B9A3420FD848
:1004A0001A465B68002BF9D111685018844217D0A6
:1004B0002DD3636054602846BDE8384000F08EB903
:1004C00011685018A04215D021D8216860188342C5
:1004D000EFD118685B680144C4E900135460EAE78F
:1004E000236819441160E6E718685B680144C4E9B1
:1004F0000013CDE720680144501883421160DAD11F
:10050000D3E900030144C2E90013D4E770470C2388
:100510002B602846BDE8384000F060B9A4020020F6
:10052000F8B5CD1C25F0030508350C2D38BF0C257A
:10053000002D064623DBA94221D8254F00F04CF9B7
:100540003A6822B3144603E063682246FBB11C46B6
:1005500023685B1BF8D40B2B15D8636894420CBF3F
:100560003B605360304600F039F904F10B00231D65
:1005700020F00700C21A01D01B1AA350F8BD0C23AB
:1005800033600020F8BD23601C442560EAE77968E9
:10059000C9B12946304600F095F8431C0CD0C41C64
:1005A00024F00304A04205D0211A304600F08AF856
:1005B000013001D02560D5E70C233046336000F0D0
:1005C0000DF90020F8BD304600F07CF87860E0E7D7
:1005D000A402002038B5124B1D68AA6B04461AB15C
:1005E0000023C2E9044338BD1820FFF73FFE02464E
:1005F000A86378B101200021C2E90401094B0A482F
:100600000A499160C2E900030B2393810023C2E9E8
:10061000044338BD064B0748422100F07FF800BF75
:100620000000002034126DE60E33CDABECDE050089
:10063000CC3B0008E43B000838B5194B1C68A26BA2
:100640008AB1136917495469174803FB01F100FB8C
:100650000411A3FB0030013341EB0001C2E9043176
:1006600021F0004038BD1820FFF700FE0246A063CD
:1006700088B101240025C2E904450C4B0C4C094803
:100680000C499160C2E900430B2393810A4B014658
:10069000C2E9043138BD094B09484E2100F03EF84B
:1006A000000000202DF451582D7F954C34126DE63A
:1006B0000E33CDABECDE05002E7F954CCC3B000815
:1006C000E43B000838B5074D0022044608462A607E
:1006D00003F0F4F9431C00D038BD2B68002BFBD08D
:1006E000236038BDAC02002010B50B4B84B004462B
:1006F00000221868694600F059F8002806DBDDE999
:1007000000010CB1C4E9000104B010BD4FF0FF308E
:100710004FF0FF31F5E700BF0000002000B50B4CA3
:1007200025681446EE681A4685B003460D464CB15E
:1007300007490095CDE901143046064900F022F83A
:1007400000F0AAFC04490C46F3E700BF00000020BB
:10075000183C0008283C0008243C000808B5134653
:100760000022FFF7DBFF00BF0CB400B583B004AB81
:1007700053F8042B019300F06DF803B05DF804EB1F
:1007800002B070470EB410B583B005AB064C53F8F9
:10079000042B01930146206800F05CF803B0BDE82B
:1007A000104003B0704700BF0000002070B50C4639
:1007B000084D03460026204611461C462E6001F0D7
:1007C000EDFB431C00D070BD2B68002BFBD02360D9
:1007D00070BD00BFAC020020704700BF704700BF73
:1007E0009368013B002B936005DAD2F818C063458B
:1007F00007DB0A2905D01368581C106019700846D9
:10080000704700F063BB00BF9BB1F8B513440646C8
:100810000F46541E5D1E01E0AC4208D014F8011FC3
:100820003A463046FFF7DCFF431CF5D1F8BD002007
:10083000F8BD0020704700BF936810B5144613B987
:100840005360184610BD00F037FE0023C4E90133A1
:1008500010BD00BF2DE9F04F88469FB015461C46DD
:10086000814618B18369002B00F0A280924B984515
:1008700000F0A480914B984500F0B180904B9845D2
:1008800008BFD9F80C80B8F80C30180740F19D80EB
:10089000D8F81030002B00F0988000230B932978B3
:1008A000884E059420238DF8313030238DF8323076
:1008B0000127002974D02C460B4604E014F8013FB0
:1008C000002B00F08F80252BF8D1B4EB050B40F006
:1008D0008C802378002B63D000234FF0FF32CDE9CA
:1008E0000723069309938DF85B301C93013404E0D1
:1008F000069A07FA03F3134306932546052214F8D4
:10090000011B304601F024F8831B0028F0D1069B20
:10091000D90644BF20228DF85B2029781A0744BFEE
:100920002B228DF85B202A2970D1059A1168043298
:1009300000290592C0F29B800991697801352E2922
:1009400076D0614C0322204601F002F838B1069BB4
:10095000001B402404FA00F003430693013515F808
:10096000011B5A488DF83010062200F0F1FF0028D4
:1009700000F08380564B002B6DD005AA0092554B9A
:10098000424606A94846AFF300800390039B01331B
:1009900006D00B9B039A297813440B9300298AD124
:1009A000B8F80C305B0617D40B981FB0BDE8F08F79
:1009B00000F062FD404B98457FF45CAFD9F80480AD
:1009C000B8F80C3018073FF563AF4146484600F0D1
:1009D000E1FA00283FF461AF4FF0FF30E5E7D9F8C6
:1009E000088050E7B4EB050BDAD0AA46C5F1010543
:1009F00003E0934536D91AF8011F42464846FFF7EF
:100A0000EFFE013005EB0A02F3D1C9E7A1F1300294
:100A1000092A94D8099B15F8011F03EB830302EB05
:100A20004303A1F13002092AF5D92E29099388D16F
:100A300069782A292BD1059BA9781A680792043373
:100A4000002A05F102000593B8BF4FF0FF330546B9
:100A5000B8BF079375E7059B073323F007030833F7
:100A6000059396E70B9A23785A440B9232E7494252
:100A700043F00203099106935FE705AA0092154B24
:100A8000424606A9484600F0C9F803907EE7A1F166
:100A900030020023092A079305F101053FF651AF03
:100AA00015F8011F03EB830302EB4303A1F13002AE
:100AB000092AF5D9079344E7AC3B00088C3B0008B2
:100AC0006C3B0008583C0008603C0008643C00088F
:100AD000000000000908000810B4044C84461346C6
:100AE000206810BC0A466146FFF7B4BE0000002033
:100AF0002DE9F04791461E460A698B68DDF8208093
:100B00009A42B8BF1A46C9F8002091F843300C4603
:100B1000054613B10132C9F80020226891065DD55F
:100B2000D9F800300233C9F80030226812F0060FFD
:100B300011461ED1E168CB1A002BD8BF114618DD33
:100B400004F1190A002706E0D9F80030E268A2EBA8
:100B5000030CBC450CDD0123524631462846C047F4
:100B6000013007F10107EFD14FF0FF30BDE8F0870A
:100B7000216894F84330003B18BF01238A060AD548
:100B8000E1185A1C302081F84300224494F84510A3
:100B900082F84310023304F1430231462846C0472D
:100BA0000130E1D0236803F00603042B1DD0A368B5
:100BB0002269934225DD00279B1A1F4404F11A097C
:100BC000002401E0BC421CDA01234A463146284693
:100BD000C047013004F10104F4D1C5E712F0060F5B
:100BE00012D0003B18BF0123D5E7D9F80030E168E7
:100BF0002269C91AA368934221EAE177DCDC002963
:100C0000DCDC0020BDE8F087E168D9F80030CB1AC1
:100C1000002BD8BF114693DCABE700BF2DE9F043B2
:100C2000174685B00A7E0C9D0C460646984601F193
:100C3000430C002A33D0A2F15803D9B2202967D837
:100C4000202B65D8DFE813F0DE0064006400640048
:100C50006400640064006400640064006400A30035
:100C60006E0064006400640064006E006400640050
:100C70006400640021007F00C00064006400AE00D6
:100C800064007F0064006400E50023681A0640F1F8
:100C900004812B686269191D29601B681A60002392
:100CA000E1462361CDF800803B4603AA2146304649
:100CB000FFF71EFF013020D023694A4639463046EF
:100CC000C047013019D02368E06803999B0719D504
:100CD000431A002B16DD04F11909002504E0E06831
:100CE0000399431AAB420DDD01234A46394630468B
:100CF000C047013005F10105F1D14FF0FF3005B0DB
:100D0000BDE8F0838842B8BF084605B0BDE8F0836F
:100D1000012384F84220236104F14209002384F86E
:100D20004330BFE72368190602D45A0600F1C18098
:100D300029680A68043129601146002A6BDBDFF854
:100D400084E10A2510E02368180640F19C802B6896
:100D5000191D29601968DFF86CE16F2A0CBF08259E
:100D60000A25002384F843306268A260002A7FDBF2
:100D7000236823F00403236000295BD1002A79D182
:100D8000E146082D65D0ACEB090323618AE72B68A7
:100D90000122196804332B6004F1420984F84210DF
:100DA0002261BBE72B686268191D2960D3F80090A7
:100DB0000021484600F0CCFD002800F08180A0EB27
:100DC000090060602061A9E7236843F020032360E5
:100DD0007822DFF8F4E084F845202A68111D2960A4
:100DE000190643D45D0641D51188D80744BF43F0A6
:100DF00020032360002944D1236823F020032360CB
:100E00001025AEE7582384F84530DFF8B8E02368B2
:100E1000E3E72368DCE76268A2602D20002AC1F1C5
:100E2000000184F8430002DB23F004032360DFF8B1
:100E300094E00A25E146B1FBF5F305FB13100A46E1
:100E4000AA421EF8001009F8011D1946F3D2082D18
:100E500099D12368D90796D5626823699A4292DCB2
:100E6000302309F8013C09F1FF398CE71168BCE730
:100E70000029DFD19EF8003084F8423004F14209A5
:100E80007FE710256DE713F0400F2B6803F1040195
:100E900029600CBF196819885DE713F0400F2B68B3
:100EA000626903F1040129601B6814BF1A801A608B
:100EB000F5E62A68B2F9001004322A600A463CE7D7
:100EC00060687FE76C3C0008803C0008F8B50D4680
:100ED0001446064608B1836943B3254B9C422AD089
:100EE000244B9C4229D0244B9C4208BFF468A38920
:100EF000A269A2601A0722D5236903B32268616937
:100F0000D31AEDB299422F4629DD0133A168013988
:100F1000A160511C2160157062699A4216D0A389A4
:100F2000DB0701D50A2D11D03846F8BD00F0A4FA30
:100F30000F4B9C42D4D17468D9E7B468D7E72146F7
:100F4000304600F027F838B92369D7E72146304604
:100F500000F02CF90028E7D04FF0FF37E4E72146F6
:100F6000304600F023F90028F6D122680123CDE7AE
:100F7000AC3B00088C3B00086C3B000810B4044CF0
:100F800003460A46206810BC1946FFF79FBF00BF02
:100F9000000000203C4B70B51D6806460C460DB1A4
:100FA000AB69E3B1394B9C421FD0394B9C424DD0C9
:100FB000384B9C4208BFEC68B4F90C3018079AB261
:100FC00019D5216911B312F001002FD00020A060C3
:100FD00060694042A06100292ED0002070BD2846E3
:100FE00000F04AFA294B9C42DFD16C68B4F90C300E
:100FF00018079AB2E5D4D1063ED5520728D4216904
:1010000043F00803A3819AB20029DCD102F42070D6
:10101000B0F5007FD7D02146304600F005FCB4F98A
:101020000C3021699AB212F00100CFD1950758BF58
:101030006069A0600029D0D1120658BF0846CDD5FE
:1010400043F04003A3814FF0FF3070BDAC68B3E7BD
:10105000616B51B104F14402914204D03046FFF774
:1010600001FAB4F90C300022626321690022C4E95C
:10107000001223F02403C3E7092243F04003326047
:101080004FF0FF30A38170BD00000020AC3B000892
:101090008C3B00086C3B000808B5062000F0E0FD22
:1010A000012000F0ABFF00BFF8B58B890C46190793
:1010B00007463AD46268002A53DDE66A002E4ED015
:1010C00000223D683A6013F480524ED1216A012318
:1010D0003846B047421C5AD0A389E66A5B0705D55B
:1010E0006368C01A636B0BB1236CC01A216A024695
:1010F00000233846B047411C39D13B68002B36D01D
:101100001D2B01D0162B49D123690022C4E90032DE
:10111000616B3D6019B304F14403994202D0384633
:10112000FFF7A0F900206063F8BD2669BEB125680D
:1011300026609A070CBF63690023AD1BA3600CE017
:10114000D4F828C0216A2B4632463846E047B0F131
:10115000000CA5EB0C05664412DD002DF0DC002030
:10116000F8BD226C002AA8DCF9E7606DB6E7002321
:10117000636023692360A389DB04C9D56065C7E781
:10118000A38943F040034FF0FF30A381F8BD3B68D3
:10119000002BA1D01D2B06D0162B04D0A38943F021
:1011A0004003A381F8BD3D60D9E700BF38B50B69A6
:1011B000BBB10C46054608B18369B3B10D4B9C42E7
:1011C00011D00D4B9C4213D00C4B9C4208BFEC68D5
:1011D000B4F90C302BB121462846BDE83840FFF762
:1011E00063BF002038BD6C68F2E700F045F9E5E721
:1011F000AC68EDE7AC3B00088C3B00086C3B00089A
:1012000038B540B303690446E3B1174B1D680DB10F
:10121000AB69CBB1154B9C420FD0154B9C4221D0F2
:10122000144B9C4208BFEC68B4F90C3053B1214612
:101230002846BDE83840FFF737BF6C68B4F90C307A
:10124000002BF4D1002038BD284600F015F9074BDB
:101250009C42E2D1F1E7084B08491868BDE83840E4
:1012600000F0BEBAAC68DFE700000020AC3B00082D
:101270008C3B00086C3B0008683B0008AD1100087F
:1012800000207047014900F0ABBA00BFAD11000863
:101290000020704770B568224D1E02FB05F50E4612
:1012A00005F17401FFF73CF9044640B100210C3010
:1012B000C4E90016A06005F16802FFF781F8204636
:1012C00070BD00BF274B2DE9F0411E68B36907468A
:1012D00053B348364FF00408D6E90134013B04D536
:1012E0001EE05A1C04F168041AD0B4F90C50013BFA
:1012F000002DF6D11C4B6566C4E90055C4E90253C4
:10130000C4E90455A5610822294604F15C00FFF7F1
:1013100057F8C4E90D55C4E912552046BDE8F081DF
:1013200035682DB12E46D7E7304600F01FF8D0E7DC
:101330004FF4D6713846FFF7F3F8044668B10560FC
:10134000C0F804800C302946A06025464FF4D072C6
:10135000FFF736F834602E46BEE70C2330603B6062
:10136000DBE700BF683B00080100FFFF2DE9F84FF5
:10137000344B35491A68816290424FF00003C0E94E
:101380001233036504BF012383610546FFF79AFF0B
:1013900068602846FFF796FFA8602846FFF792FF8F
:1013A0006F68E86000240423C7E90243082221464D
:1013B000C7E90044C7E904447C66BC6107F15C00EE
:1013C000FEF7FEFFDFF884B0AE68DFF884A0DFF838
:1013D0008490DFF88480214BC7F828A0C7E9087BF8
:1013E000C7F82C90C7F830800822F360C6E90044A3
:1013F000C6E904447466B460B461214606F15C0039
:10140000FEF7DEFFC6E9086BC6E90AA9C6F8308018
:10141000EE68134BF360C6E90044C6E90444746601
:10142000B460B4612146082206F15C00FEF7C8FFF3
:101430000123C6E9086BC6E90B98C6F828A0AB6182
:10144000BDE8F88F683B000885120008D11D000830
:10145000F91D0008391E0008591E00080900010086
:1014600012000200024B0349186800F0B9B900BF2E
:10147000683B0008AD110008836903B976E770473F
:10148000704700BF704700BF704700BF704700BF84
:10149000024B0349186800F083B900BF0000002028
:1014A00081120008024B0349186800F079B900BFA7
:1014B00000000020911200089368002B00F081804A
:1014C0002DE9F04FB1F90C300C461907804683B076
:1014D000174698B223D523690BB310F002033D6879
:1014E0002BD04FF0000ADFF8B4B256465E453346C3
:1014F000524628BF5B464046002E4FD0216AD4F8A2
:1015000028C0E047002852DDBB681B1A8244361A07
:10151000BB60002BEAD1002003B0BDE8F08F21466C
:101520004046FFF737FD002840F03481B4F90C3015
:101530003D6898B210F00203D3D110F0010942D1F6
:101540004E463EB38205D4F808B040F18180B345E1
:101550005A4600F2B18010F4906F40F0BE802068CF
:101560000192494600F044FAA3682168019AA3EB6E
:101570000B030A44B246A36022600026B868A0EBC1
:101580000A00D144B8600028C5D0B4F90C0080B27C
:10159000002ED7D1D5E900960835D2E7D5E900A6C7
:1015A0000835A3E721464046FFF700FE80B3B4F9B3
:1015B0000C3043F040034FF0FF30A38103B0BDE88F
:1015C000F08F002070471E46AA46994618461D46D1
:1015D00056B388B34A46D4E904132068B24228BF00
:1015E0003246884205D9A16803EB010B5A4500F346
:1015F000A780934264DC216AD4F828C02A4640467A
:10160000E047B0F1000BD2DDB9EB0B09CAD00120E5
:10161000BB68A3EB0B035D44A6EB0B06BB60002B82
:101620003FF479AF002ED4D10AF1080353E90256F2
:101630009A460833002EF9D032460A21284600F097
:1016400087F9002800F09D800130A0EB0509C1E773
:1016500020682369984217D86369B34214D86FF0A1
:101660000042B24228BF3246216A92FBF3F2D4F81C
:1016700028C002FB03F340464A46E047B0F1000AA7
:1016800095DDA6EB0A0679E7B345DA4628BFB246F0
:101690005246494600F0ACF9A3682268A3EB0A035E
:1016A0005244A3602260002BEBD121464046FFF755
:1016B0007DFD0028E5D07AE72068B34632464FE743
:1016C0002946019200F094F9019AA3689B1AA3603D
:1016D000236813442360934696E723682169A3EBAC
:1016E000010B636903EB430A0AEBDA7A0BF101039E
:1016F0004FEA6A0A33445345524684BF9A465246DB
:1017000043052CD511464046FEF70AFF00283BD082
:101710005A4621690190FEF7B9FDA289019B22F486
:10172000906242F08002A28103EB0B002361AAEBDE
:101730000B03C4F814A0A3602060B34632460FE741
:1017400029465A4600F054F923685B442360214639
:101750004046FFF72BFD00283FF456AF27E74046F1
:1017600000F0C2F903460028DED121694046FEF7A9
:1017700079FEB4F90C300C2223F08003C8F8002065
:1017800017E7721C914626E70C22B4F90C30C8F812
:1017900000200EE74FF0FF30BEE600BF00FCFF7FE9
:1017A0002DE9F041884600F148070026D7E90154A9
:1017B000013D0FD4A389012B05F1FF3506D9B4F9FA
:1017C0000E300133204601D0C04706436B1C04F1A4
:1017D0006804EFD13F68002FE8D13046BDE8F081C2
:1017E0002DE9F8430746884600F148064FF0000906
:1017F000D6E90154013D11D4A389012B05F1FF3530
:1018000008D9B4F90E300133214603D03846C04719
:1018100049EA00096B1C04F16804EDD13668002E1A
:10182000E6D14846BDE8F883F0B58B890C469907A8
:1018300097B007D504F147030122C4E904322360BD
:1018400017B0F0BDB4F90E10002905462DDB6A462D
:1018500000F02EFB002827DB019E06F470464FF4B3
:101860008067A6F50056B6FA86F639462846760908
:10187000FEF756FE30B3A3891A4AAA6243F08003EA
:10188000C4E90407A3812060002ED9D0B4F90E105A
:10189000284600F023FB0028D2D0A38923F00303BD
:1018A00043F00103A381CBE7A38913F0800F14BF9A
:1018B00040274FF48067394628460026FEF730FE61
:1018C0000028D8D1B4F90C309A05B9D423F0030319
:1018D00004F1470243F002030121C4E90421A3817A
:1018E0002260ADE78512000870B50C46B1F90E1004
:1018F000002996B016461D4613DB6A4600F0D8FA5A
:1019000000280EDB019901F47041A1F50051B1FAF4
:1019100081F14FF48063490900202960336016B0DB
:1019200070BDB4F90C3000221B062A6004D5402398
:101930000020336016B070BD4FF480630020336028
:1019400016B070BD000000000000000000000000A4
:1019500001F0FF01102A2BDB10F0070F08D010F860
:10196000013B013A8B422DD010F0070F42B3F6D164
:10197000F0B441EA012141EA014122F007047FF07D
:1019800000070023F0E80256083C85EA010586EAD4
:10199000010685FA47F5A3FA87F586FA47F6A5FA10
:1019A00087F68EB9EED1F0BC01F0FF0102F007021C
:1019B00032B110F8013B013A83EA010313B1F8D1C7
:1019C0000020704701387047002D06BF35460338A8
:1019D000073815F0010F07D1013015F4807F02BFE1
:1019E000013015F4C03F0130F0BC0138704700BF32
:1019F00088420DD98B1883420AD900EB020CBAB188
:101A0000624613F801CD02F801CD9942F9D1704731
:101A10000F2A0ED8034602F1FF3C4AB10CF1010C2B
:101A2000013B8C4411F8012B03F8012F6145F9D1DA
:101A3000704740EA01039B0750D1A2F1100370B533
:101A400001F1200C23F00F0501F1100E00F110043C
:101A5000AC441B095EF8105C44F8105C5EF80C5C4A
:101A600044F80C5C5EF8085C44F8085C5EF8045CC2
:101A700044F8045C0EF1100EE64504F11004E9D1BF
:101A8000013312F00C0F01EB031102F00F0400EB15
:101A9000031327D0043C24F003064FEA940C1E44A1
:101AA0001C1F8E465EF8045B44F8045FB442F9D113
:101AB0000CF1010402F0030203EB840301EB840147
:101AC00002F1FF3C4AB10CF1010C013B8C4411F8CE
:101AD000012B03F8012F6145F9D170BD02F1FF3CE4
:101AE00003469BE72246EBE7F8B51446F9B1CAB1C5
:101AF00006460D4600F01AFAA04202D32F46384699
:101B0000F8BD21463046FEF70BFD07460028F6D00B
:101B100022462946FEF7BAFB30462946FEF7A2FCCC
:101B20003846F8BD2746FEF79DFC3846F8BDBDE8AF
:101B3000F8401146FEF7F4BC38B5446C0CB10020F7
:101B400038BD80210546FEF7EBFC0246686430B1E3
:101B5000031F7C3243F8044F9342FBD1EFE74FF071
:101B6000FF3038BD1F29F8B5054608D8466C0C462D
:101B700017464EB156F8240046F82470F8BD1623D7
:101B800003604FF0FF30F8BD8021FEF7C9FC064628
:101B9000686440B1031F00F17C05002143F8041F75
:101BA0009D42FBD1E6E74FF0FF30F8BD1F2938B565
:101BB000054620D8426C0C466AB152F8213053B128
:101BC000012B16D0591C10D00025204642F8245075
:101BD0009847284638BD284600F0F8F822460146C6
:101BE0002846BDE8384000F0DBB81623036001202A
:101BF00038BD002038BD162303604FF0FF3038BDDC
:101C00001F292AD8426C38B50C46054682B152F8D5
:101C1000243002EB84024BB1591C19D0012B15D092
:101C20000025204615609847284638BD012038BD5C
:101C30008021FEF775FC0246686458B1031F00213D
:101C40007C3043F8041F9842FBD1E0E7032038BD05
:101C5000022038BD4FF0FF3038BD4FF0FF307047E5
:101C600038B5144B1F281D681FD86A6C044662B132
:101C700052F820304BB1012B15D0591C0FD0002544
:101C800042F820509847284638BD284600F09EF874
:101C9000224601462846BDE8384000F081B81623A8
:101CA0002B60012038BD002038BD16232B604FF07B
:101CB000FF3038BD00000020124B1F2870B51E6891
:101CC00008D80D46716C044649B151F8240041F81A
:101CD000245070BD162333604FF0FF3070BD80215B
:101CE0003046FEF71DFC0146706440B1031F00F151
:101CF0007C0C002243F8042F6345FBD1E5E74FF04D
:101D0000FF3070BD0000002038B50B4B1D686C6CB7
:101D10000CB1002038BD80212846FEF701FC686424
:101D200038B1031F00F17C0243F8044F9342FBD10A
:101D3000EFE74FF0FF3038BD0000002038B5174BFB
:101D40001F281D6826D86A6C044682B152F82430D8
:101D500002EB84024BB1591C1AD0012B16D000257E
:101D6000204615609847284638BD012038BD80219F
:101D70002846FEF7D5FB0246686458B1031F0021D0
:101D80007C3043F8041F8342FBD1DFE7032038BDDA
:101D9000022038BD4FF0FF3038BD00BF00000020EA
:101DA00070B50C46084D03460026204611461C46D9
:101DB0002E6000F003F9431C00D070BD2B68002B8F
:101DC000FBD0236070BD00BFAC02002000F0DEB885
:101DD00010B50C46B1F90E1000F0B2F8002803DB84
:101DE000636D0344636510BDA38923F48053A3810D
:101DF00010BD00BF002070472DE9F0410C46B1F93D
:101E00000C101F46CB05054616460BD421F4805115
:101E1000A1813B46B4F90E1032462846BDE8F04198
:101E200000F01EB8B4F90E100223002200F068F88A
:101E3000B4F90C10EAE700BF10B50C46B1F90E106A
:101E400000F05EF8A389421C0EBF23F4805343F4D4
:101E500080536065A38110BDB1F90E1000F016B873
:101E600038B50C46084D8446114620461A460023D4
:101E70002B60644600F0BAF8431C00D038BD2B68D4
:101E8000002BFBD0236038BDAC02002038B5074DD5
:101E90000022044608462A6000F068F8431C00D07F
:101EA00038BD2B68002BFBD0236038BDAC0200206E
:101EB00070B50C46084D03460026204611461C46C8
:101EC0002E6000F05BF8431C00D070BD2B68002B27
:101ED000FBD0236070BD00BFAC02002038B5074DB9
:101EE0000022044608462A6000F060F8431C00D037
:101EF00038BD2B68002BFBD0236038BDAC0200201E
:101F000038B50C46084D8446114620461A46002333
:101F10002B60644600F05AF8431C00D038BD2B6893
:101F2000002BFBD0236038BDAC02002051F8040C1C
:101F30000028A0F10400BCBF0B58C018704700BFB8
:101F400038B50C46084D8446114620461A460023F3
:101F50002B60644600F042F8431C00D038BD2B686B
:101F6000002BFBD0236038BDAC020020024B58226E
:101F70001A604FF0FF307047AC020020024B58222D
:101F80001A604FF0FF307047AC020020024B58221D
:101F90001A604FF0FF307047AC020020024B58220D
:101FA0001A604FF0FF307047AC020020024B5822FD
:101FB0001A600020704700BFAC020020024B58227C
:101FC0001A604FF0FF307047AC020020024B5822DD
:101FD0001A604FF0FF307047AC020020024B5822CD
:101FE0001A604FF0FF307047AC020020024B5822BD
:101FF0001A604FF0FF307047AC020020FEE700BFD0
:1020000008B502466021722000F0A0FD002008BD46
:10201000F0B5834C06788BB005466022002120463F
:10202000FEF7CEF9F00700F1E4800135B10716D5CF
:1020300015F8012BD4F880000023C4E91E23C4E95D
:102040001A2308B1FEF71AF9A76E3846FEF70EF903
:1020500029463A46C4F88000FEF718F93D44720755
:1020600016D515F8012BD4F890000023C4E92223DB
:10207000C4E91A2308B1FEF701F9A76E3846FEF746
:10208000F5F829463A46C4F89000FEF7FFF83D44BB
:10209000330713D5D4F8940010220023C4E91A237F
:1020A00008B1FEF7EBF8A76E3846FEF7DFF82946D1
:1020B0003A46C4F89400FEF7E9F83D44F70612D515
:1020C000D4F8980010220023C4E91A2308B1FEF7BF
:1020D000D5F8A76E3846FEF7C9F83A462946C4F83F
:1020E0009800FEF7D3F8B0063FD5D4E91832D4F8FB
:1020F0008000103342F10002C4E91E32C4E91A32F2
:1021000008B1FEF7BBF8A06EFEF7B0F8D4F898302F
:102110000893D4F894300793D4E92223CDE904231B
:10212000D4F890300293D4E918230025CDE9002398
:102130003C49226F0695C4F8800000F0D5F9D4E937
:102140001A23612A73F1000124BF60222B46D4F8C0
:1021500080103348C4E91A23FEF798F8310604D4F6
:102160002F4A6021722000F0F1FC72063ED5D4E9BE
:102170001E32206F103B42F1FF32C4E91832C4E92D
:102180001A3208B1FEF77AF8A06EFEF76FF8D4F8AD
:1021900098300793D4F894300693D4E92223CDE9FC
:1021A0000423D4F890300293D4E91E231E492067FB
:1021B000CDE90023D4F88030002200F0E9FAD4E918
:1021C0001A23602A73F1000124BF5F220023C4E9AF
:1021D0001A23207018B9216F1448FEF757F83306F8
:1021E00004D40F4A6021722000F0B0FC00200BB034
:1021F000F0BD6A78206F0023C4E91823C4E91A23CC
:10220000023508B1FEF73AF8A76E3846FEF72EF809
:1022100029463A4620673D44FEF738F806E700BFF6
:102220008800002000010020E80000208900002034
:1022300008B500F049FD00F087FD00F0C3FD00F097
:102240006FFC0020FEF750FAFEF7C4F9064A602141
:10225000612000F061FC054A6021652000F05CFC13
:1022600000F0CEFCFCE700BF1120000801200008B0
:102270002DE9F04FD0E90823D0E9005483EA040E99
:10228000846982EA050A6240C469D0E9045683EA97
:102290000408D0E902345D406940856922EA0509F5
:1022A000C56985B0664028EA0505754003958569CE
:1022B00021EA030789EA010C87EA0A0725EA0101F6
:1022C0007940C569CDF808C023EA0A094B4001935B
:1022D00026EA040B039B25EA0606029D89EA020909
:1022E0002EEA08012AEA02026A4059408569029BE7
:1022F0008BEA0E0B24EA0E0C8CEA080C6FEA030A38
:102300006A40039BC56986EA0B06744087EA0907A1
:102310008BEA0C0669404FEAD74BDD434FEAD64EB5
:102320004FEA1778330F4BEA463B43EA07134EEA6E
:10233000473E48EA06188BEA08088EEA030E019B1E
:1023400088EA07078EEA0606C0E900764FEA446E7F
:10235000E600DF004FEA43684EEAD31E48EAD4188D
:1023600046EA537647EA547787EA080786EA0E0674
:102370007B407440C0E902344FEA9A174FEA5A048E
:102380006B08AE0947EA856746EA8A6644EAC5747F
:1023900043EACA7373407C4084EA0A045D40C0E9A2
:1023A00004458B0A940A560C4D0C46EAC13645EAA0
:1023B000C23544EA815443EA825374406B40624020
:1023C0005940C0E906214FEADC134FEAD9124FEA1F
:1023D000CC514FEAC95442EA4C6243EA496341EAAC
:1023E000592144EA5C2462404B4082EA090283EAB4
:1023F0000C03C0E9082305B0BDE8F08F08B5F02153
:10240000FFF736FFE121FFF733FFD221FFF730FF5F
:10241000C321FFF72DFFB421FFF72AFFA521FFF706
:1024200027FF9621FFF724FF8721FFF721FF78215F
:10243000FFF71EFF6921FFF71BFF5A21FFF718FF67
:10244000BDE808404B21FFF713BF08B59621FFF701
:102450000FFF8721FFF70CFF7821FFF709FF6921A4
:10246000FFF706FF5A21FFF703FFBDE808404B21A5
:10247000FFF7FEBE0022F0B506460D461046114697
:102480006FF0070EAA4200D1F0BD0EFB02F3B45C60
:1024900003F1380CCCF12007183304FA03F324FAC3
:1024A00007F73B4304FA0CF4204319430132E9E7F0
:1024B000F0B5059E00256FF0070CB54200D1F0BDC8
:1024C0000CFB05F404F13801C1F12007183422FA9D
:1024D00001F103FA07F7394323FA04F42143415584
:1024E0000135EAE7000000002DE9F04F95B0DDE985
:1024F0001E43DDE92595CDE9070214F1100206938C
:1025000043F10003C1E9002328460821FFF7B2FF89
:10251000CDE9020108216818FFF7ACFFCDE90401FD
:1025200008214846FFF7A6FF0D460821074609EB9C
:102530000100FFF79FFF94A3D3E90023CDE90A230D
:10254000029B0C93039B0D93049B0E93059B11958B
:10255000CDE90F370AAFCDE91201DDE9226800F0BD
:1025600055FCF0213846FFF783FE00F056FC384654
:10257000E121FFF77DFED221FFF77AFEC321FFF7AD
:1025800077FEB421FFF774FEA521FFF771FE9621B7
:10259000FFF76EFE8721FFF76BFE7821FFF768FEDD
:1025A0006921FFF765FE5A21FFF762FE4B21FFF715
:1025B0005FFE109B029A03995A40119B4B40CDE954
:1025C0001023129B049A05995A40139B4B40CDE966
:1025D000122356EA080340F0BC80129B83F00103EB
:1025E0001293DDE9066303EB040A089B254603EB1F
:1025F000040B082D76F10003DDE90A87AAEB050933
:10260000ABEB050080F0AA80069BE00840EA43702F
:10261000079B03EBC0056FF00703A0FB03321C19F7
:10262000089B214603EBC000FFF724FF009480EADB
:10263000080281EA07032846CDE90A23FFF738FF9D
:10264000D4F10702D100A1F120038022C1F12005BD
:1026500022FA05F502FA03F38A400A994A400B99D7
:102660002B434B40CDE90A230C9B029A03995A4015
:102670000D9B4B40CDE90C230E9B049A05995A40C3
:102680000F9B04444B400AA8CDE90E23FFF7B6FE8A
:10269000109A029B03991298059D5A40119B4B403A
:1026A00004994840139969400825CDE91201009525
:1026B0002046CDE91023FFF7FBFE6019DDE9122368
:1026C0000095FFF7F5FE002015B0BDE8F08F08215A
:1026D0000993FFF7CFFE80EA0A0081EA0901CDE9FC
:1026E0000A013846FFF7B1FE083D099B6BF1000B6C
:1026F000082D7BF10002DDE90AA9A3EB0500E6D273
:10270000F00840EA48706FF00703A0FB03329E19FF
:10271000209B314603EBC000FFF7ACFED6F1070665
:10272000F6008022A6F12005C6F1200302FA05F585
:1027300022FA03F380EA0A002B4302FA06F681EA42
:10274000090146404B400AA8CDE90A63FFF77DFE28
:1027500043E7209B3546C3463344C9E70821FFF7CA
:1027600089FE81EA0703082180EA080200914846B1
:10277000CDE90A23FFF79CFE0AA8FFF766FE083D95
:1027800066F1000635E700BF00000000060C40803F
:102790002DE9F04F99B0DDE922BA0893DDE926571B
:1027A000DDE9288407900E4600F030FBBBF1100FE6
:1027B0007AF10003C0F05381BBF1100B4AF1FF33F3
:1027C000C6E900B3204608210693FFF753FECDE982
:1027D000020108216018FFF74DFECDE90401082130
:1027E0004046FFF747FE0C460821064608EB01006D
:1027F000FFF740FE9CA3D3E90023CDE90E23029B03
:102800001093039B1193049B1293059B1594CDE9A0
:1028100016010EA8CDE91336FFF7F0FD149B029ABE
:1028200003995A40159B4B40CDE91423169B049AFB
:1028300005995A40179B4B40CDE9162355EA0703EB
:1028400040F0D68006AE169B96E8C00183F00103E7
:1028500016935C46082C76F10003DDE90EA980F0A2
:10286000CD80069B4FEADB0444EA4374079B03EBED
:10287000C407089B6FF0070603EBC405A4FB0643DF
:1028800014EB0B0421462846FFF7F4FD009480EA80
:102890000A0281EA0903804638468B46FFF708FEA4
:1028A000DDE90EC700214FF0FF0E8C4200F3C3801C
:1028B000D4F10700C200A2F120018020C2F1200360
:1028C00000FA01F120FA03F30B434BEA07079040AB
:1028D0005F40029A109B03995A40119B4B40CDE9EF
:1028E0001023129B049A059948EA0C0C5A40139B3A
:1028F00080EA0C004B40CDE90E070EA8CDE912236B
:10290000FFF77CFD149A029B03991698059E5A4086
:10291000159B4B4004994840179971400826CDE912
:10292000160100960AA8CDE91423FFF7C1FDDDE9E1
:1029300016230CA80096FFF7BBFD2A1910340AAB2A
:102940002C44002012F8011B13F8015B944281EA29
:10295000050140EA0100F5D1441EC4F30024013C06
:1029600000F05BFA204619B0BDE8F08F082109930A
:10297000FFF780FD80EA090081EA0801CDE90E0138
:102980003046FFF762FD083C099B6AF1000A082CFB
:102990007AF10002DDE90E98A3EB0400E6D2E80824
:1029A00040EA47706FF00703A0FB03325D19249BD8
:1029B000294603EBC000FFF75DFDD5F10705ED00EB
:1029C0008022A5F12004C5F1200302FA04F422FAC2
:1029D00003F380EA0900234302FA05F581EA0801BE
:1029E00045404B400EA8CDE90E53FFF72EFD29E7D9
:1029F000249B2C46BA462B440646C8E7404608218D
:102A0000FFF738FD082380EA0A020546009338469E
:102A100081EA09030991FFF74BFD09990E950EA86C
:102A20000F91FFF712FD083C07F1080708F10808AD
:102A300066F100060EE706FB01F303F13800C0F172
:102A4000200218330EFA03F32EFA02F213430EFAA1
:102A500000F02CEA000C27EA0307013125E74FF0CC
:102A6000FF347FE7AFF3008000000000060C4080D9
:102A700001207047F0B500254F1C854201DB002086
:102A800021E017F8154011F81530A4F13006F6B220
:102A9000092E0CD81670A3F13004E6B2092E15D811
:102AA000137843EA0413137001350132E5E7A4F10A
:102AB0004106052E02D8373C1470ECE7A4F16106FC
:102AC000052E01D90120F0BD573CF5E7A3F14104E3
:102AD000052C02D8A3F13704E2E7A3F16104052C29
:102AE000F0D81478573B44EA0313DCE770B5094E7D
:102AF00034680F2C0BDCFF2909D806EB0415C5E957
:102B00000212013428712B743460002070BD012042
:102B1000FCE700BF240100200023FFF7E7BF00000F
:102B200008B5074A00217620FFF7F6FF054A77200F
:102B3000FFF7F2FFBDE80840034A7920FFF7ECBF3A
:102B4000712A0008B12B00088D2B0008F8B5144637
:102B50000E4600F083F90C4F651EC4F101046319A1
:102B60009E4204DCBDE8F8400A2000F077B915F871
:102B7000013F1B09F85C00F071F92B7803F00F039B
:102B8000F85C00F06BF9EAE7543B000807B5074B27
:102B90000DF107021B688DF8073001217220FFF745
:102BA000D5FF002003B05DF804FB00BF2401002026
:102BB00070B5124C21688CB0CDB20020C3B2AB42CC
:102BC00000F1010009DB01EB41016A46C9B2722044
:102BD000FFF7BCFF00200CB070BD03EB43023032A6
:102BE00004EB03136A441E7902F8306C9E681B7C68
:102BF00002F82F6C02F82E3CE0E700BF2401002011
:102C00002DE9F0412F4DADF5427D00F00DF92A463A
:102C1000002352F8041B994204DC07D10DF5427DD4
:102C2000BDE8F0811C01A45C84423ED105EB031495
:102C30001E01237CDB0714D500238DF8083000F03B
:102C4000F3F88DF8080100F0EFF802AA8DF80901F9
:102C500042A90120FFF70EFF0028DFD19DF80830C0
:102C6000A36042AF002405EB0608D8F80830B4EBA7
:102C7000430F1CD300F0D8F80A2801D00D28CDD17D
:102C8000354402AAAC6842A92046FFF7F3FE0028AB
:102C9000C4D1E1B2EB6802A8984701AA8DF80400FC
:102CA00001217A20FFF752FFB8E70133B3E700F0C4
:102CB000BBF80A28B2D00D28B0D007F8010B0134B8
:102CC000D3E700BF2401002070B596B0002403268E
:102CD0004FF4A0230CA80125CDE90C6310941494A3
:102CE00000F0D4F80F23214602A8CDE90235CDE942
:102CF0000444069400F038FB114B5A6942F4002258
:102D00005A615B69CDE9094603F400230D4C019338
:102D1000019B07A94FF4C0432046CDE9073500F0D9
:102D2000C9FB2A4620464FF4005100F087FC2A4692
:102D30004FF48041204600F081FC16B070BD00BF0A
:102D4000001002400008004810B54FF4C06288B07F
:102D50000223CDE9032301210323CDE90513164CFA
:102D600007230793636943F400336361636903F4E2
:102D70000033019303A94FF09040019B00F09AFBB0
:102D80000E48DFF83CC04FF41643C0E900C30023EF
:102D9000C0E90233036183610C234361A36943F4F7
:102DA0008043A361A36903F480430293029B00F074
:102DB00099FD08B010BD00BF00100240280200209D
:102DC00000380140104B30B55A6942F400325A6164
:102DD0005B6987B003F400330093009B4FF4805489
:102DE0000123CDE901430025032301A94FF09040C1
:102DF000CDE9035300F05EFB2A4621464FF0904098
:102E000000F01CFC07B030BD0010024001224FF45E
:102E100080514FF0904000F011BC00224FF48051DF
:102E20004FF0904000F00ABC37B50A4D0A4C41F211
:102E3000883301220DF10701284600F0D4FD18B9AE
:102E40009DF8070003B030BD236A43F008032362F6
:102E5000EDE700BF280200200038014007B541F22D
:102E600088338DF8070001220DF10701024800F0B8
:102E700064FD03B05DF804FB28020020024B1868D3
:102E8000421C1A60704700BF9802002003682DE9B9
:102E9000F341D907044611D423689A0700F18680CC
:102EA00023681E0700F1F48023685D0700F140816C
:102EB000E269002A40F0CB81002021E09A494B686A
:102EC00003F00C03042B07D04B6803F00C03082B12
:102ED00019D14B68DB0316D54FF4003393FAA3F2F4
:102EE000096893FAA3F3B3FA83F303F01F030122F3
:102EF00002FA03F30B42CFD06368002BCCD1012040
:102F000002B0BDE8F0816268B2F5803F24D10B6861
:102F100043F480330B60CB6AA06823F00F030343B4
:102F2000CB624AB3FFF7AAFF4FF4003605460127EC
:102F300096FAA6F30A6896FAA6F3B3FA83F303F0B7
:102F40001F0307FA03F31342A6D1FFF797FF401BB5
:102F50006428EDD90320D3E70B6832B923F480331A
:102F60000B600B6823F48023D4E7B2F5A02FF5D1D2
:102F700043F480230B60CAE7FFF780FF4FF400366D
:102F80000546012796FAA6F30A6896FAA6F3B3FA5D
:102F900083F303F01F0307FA03F313423FF47CAFFC
:102FA000FFF76CFF401B6428ECD9D3E75E494B6800
:102FB00013F00C0F07D04B6803F00C03082B21D142
:102FC0004B68DF031ED4022393FAA3F2086893FA36
:102FD000A3F3B3FA83F303F01F03012202FA03F30E
:102FE000034202D02369934289D10868F82393FAF7
:102FF000A3F3B3FA83F26369934020F0F80213431A
:103000000B604DE72269012502B395FAA5F3B3FAE7
:1030100083F303F1845303F584139B0002271D609F
:10302000FFF72CFF064697FAA7F30A6897FAA7F36B
:10303000B3FA83F303F01F0305FA03F31342D4D169
:10304000FFF71CFF801B0228EDD983E795FAA5F353
:10305000B3FA83F303F1845303F584139B0002272F
:103060001A60FFF70BFF064697FAA7F30A6897FA6C
:10307000A7F3B3FA83F303F01F0305FA03F3134234
:103080003FF40EAFFFF7FAFE801B0228ECD961E790
:10309000A269254D2548012112B391FAA1F3B3FA93
:1030A00083F303449B0002261960FFF7E7FE0746FF
:1030B00096FAA6F396FAA6F396FAA6F36A6A96FA31
:1030C000A6F3B3FA83F303F01F0301FA03F31342E9
:1030D0007FF4EAAEFFF7D2FEC01B0228E8D939E739
:1030E00091FAA1F3B3FA83F303449B0002261A601A
:1030F000FFF7C4FE074696FAA6F396FAA6F396FAE9
:10310000A6F36A6A96FAA6F3B3FA83F303F01F03F1
:1031100001FA03F313423FF4C7AEFFF7AFFEC01B43
:103120000228E8D916E700BF001002402081901065
:103130008A49CB69D80033D4CB6943F08053CB6143
:10314000CB6903F080530193019B0125844E3368C2
:10315000DA0527D5E368012B34D10B6A43F001036C
:103160000B62FFF78BFE022607464FF0010896FA26
:10317000A6F396FAA6F3002B61D00A6A96FAA6F394
:10318000B3FA83F303F01F0308FA03F313424ED09C
:10319000002D3FF48DAECB6923F08053CB6187E6E1
:1031A0000025D3E7336843F480733360FFF766FE8E
:1031B00007463368DB05CDD4FFF760FEC01B6428EB
:1031C000F7D9C7E62BBB0B6A23F001030B620B6A2E
:1031D00023F004030B62FFF751FE022607464FF06F
:1031E000010896FAA6F396FAA6F363B30A6A96FA6A
:1031F000A6F3B3FA83F303F01F0308FA03F31342B1
:10320000C6D0FFF73BFE41F28833C01B9842E8D995
:10321000A0E6052B0B6A03D143F004030B629CE785
:1032200023F001030B620B6A23F0040398E7FFF716
:1032300025FE41F28833C01B984298D98AE696FA57
:10324000A6F34A6A9AE796FAA6F34A6ACFE7434991
:103250004B6803F00C03082B3FF451AE022A4FF0E9
:10326000807354D193FAA3F3B3FA83F303F1845335
:1032700003F584139B0000221A60FFF7FFFDDFF8BF
:10328000E48006464FF00077012597FAA7F30A6815
:1032900097FAA7F3B3FA83F303F01F0305FA03F3D6
:1032A00013422ED1D4E908034A68034322F474126E
:1032B00013434B604FF0807393FAA3F3B3FA83F395
:1032C00003F1845303F584139B00264F1D60FFF721
:1032D000D5FD4FF000750446012695FAA5F30A685E
:1032E00095FAA5F3B3FA83F303F01F0306FA03F389
:1032F00013427FF4E1ADFFF7C1FD001BB842ECD9EA
:1033000028E6FFF7BBFD801B4045BED922E693FAB5
:10331000A3F3B3FA83F303F1845303F584139B00FF
:1033200000221A60FFF7AAFD0E4F04464FF0007509
:10333000012695FAA5F30A6895FAA5F3B3FA83F383
:1033400003F01F0306FA03F313423FF4B5ADFFF792
:1033500095FD001BB842ECD9FCE500BF001002400F
:1033600000700040400D0300504AF8B5136803F0A8
:1033700007038B4204461BD32268900724D4D2074C
:103380002AD44A4A136803F007038B427AD820688C
:10339000430700F1828010F0080014D0444A2169EC
:1033A000536823F4605343EAC103536000200AE0EA
:1033B000136823F007030B431360136803F007033C
:1033C0008B42D9D00120F8BD3948A568436823F065
:1033D000F0032B434360D2E76268354D012A27D1C1
:1033E0004FF4003393FAA3F0286893FAA3F3B3FAE7
:1033F00083F303F01F0302FA03F30342E2D06B6886
:1034000023F003031A436A60FFF738FD6368012B5A
:10341000064641F288371ED16B6803F00C03042B7B
:10342000AFD0FFF72BFD801BB842F5D90320CAE7C8
:10343000022A0CBF4FF00073022393FAA3F02E6808
:1034400093FAA3F3B3FA83F303F01F03012000FA06
:1034500003F33342D2E7022B0FD16B6803F00C0366
:10346000082B8ED0FFF70AFD801BB842F5D9DDE7A7
:10347000FFF704FD801BB842D8D86B6813F00C0F1F
:10348000F6D17EE7136823F007030B43136013683C
:1034900003F007038B4295D179E70549E3684A6851
:1034A00022F4E0621A434A6075E700BF0020024040
:1034B000001002402DE9F74FDFF874815D4C0023C6
:1034C0004FF001090A6832FA03F502D103B0BDE8F2
:1034D000F08F09FA03FA1AEA020200F09E804D68A2
:1034E00025F0100EBEF1020F14D14FEAD30C00EB01
:1034F0008C0C03F0070BDCF820604FEA8B0B0F27D6
:1035000007FA0BF726EA07070E6906FA0BF63E43A1
:10351000CCF82060D0F800B04FEA430C032606FA3E
:103520000CF72BEA070BFE4305F0030707FA0CF72D
:103530000EF1FF3E47EA0B07BEF1010F076011D8FD
:10354000876806EA070ECF6807FA0CF747EA0E0706
:103550008760476827EA0A0AC5F300179F4047EAD1
:103560000A074760C76837408E6806FA0CF63E4384
:10357000C660EE0051D5D8F8186046F00106C8F8CC
:103580001860D8F8186023F0030707F1804706F0A9
:10359000010607F58037019603F0030E019EBE6811
:1035A0004FEA8E0E4FF00F0C0CFA0EFCB0F1904F5C
:1035B00026EA0C0C33D0204EB04232D006F580669D
:1035C000B04230D006F58066B0422ED006F5806657
:1035D000B0420CBF0426052606FA0EF646EA0C0693
:1035E000BE602668D74315F4803F0CBF3E401643AB
:1035F0002660666815F4003F0CBF3E4016436660C7
:10360000A66815F4801F0CBF3E401643A660E6680E
:10361000AD0254BF3E401643E660013352E7002638
:10362000DAE70126D8E70226D6E70326D4E700BF6B
:103630000010024000040140000400480AB181610A
:10364000704781627047000002688168C36930B5C5
:10365000056914682943456924F41644294324F074
:103660000C041943214311605168C468056A21F4B0
:103670004051214351609468816924F430642943A6
:103680002143916062498A4216D101F55841096B84
:1036900001F003010139022900F2B2805D4CB3F55B
:1036A000004F615C77D1082972D8DFE801F0ACAC3B
:1036B0002471AC717171A40057498A422CD101F573
:1036C000E631096B01F44031B1F5003F00F0908024
:1036D0000BD8002900F09480B1F5803F00F0908075
:1036E000B3F5004F54D0012015E0B1F5403FF7D1BC
:1036F000B3F5004F66D141684B0803F1F47303F54D
:103700009043B3FBF1F300209BB223F00F01C3F30E
:1037100042030B43D36030BD40498A4210D101F5CA
:10372000E431096B01F44021B1F5002F60D004D8D9
:10373000002965D0B1F5802FD0E7B1F5402FD6E74D
:1037400037498A4210D101F5E231096B01F4401189
:10375000B1F5001F4CD004D8002951D0B1F5801F1D
:10376000BCE7B1F5401FC2E72E498A42B8D101F546
:10377000E031096B01F44001B1F5000F38D004D8F5
:1037800000293DD0B1F5800FA8E7B1F5400FAEE7B5
:1037900001200023B9E70829A5D801A353F821F097
:1037A000DD370008DD370008C5370008E7360008B8
:1037B000DD370008E7360008E7360008E73600087E
:1037C000E737000841684B0803F5740303F510530D
:1037D000B3FBF1F39BB2D36000209CE741684B0838
:1037E00003F5E103F4E741684B0803F50043EFE715
:1037F000B3F5004FF7D141684B0803F5803380E7FC
:10380000B3F5004FEAD141684B0803F5610378E74F
:1038100000380140643B000800440040004800407C
:10382000004C004000500040F8B5069F0446154685
:103830001E462268D36931EA03030CBF012300232B
:10384000AB4201D0002014E07B1CF3D097B9236871
:103850001A6822F4D0721A609A6822F001029A6003
:10386000202384F8693084F86A30002384F86830B3
:103870000320F8BDFFF702FB801BB842D9D9E6E769
:1038800037B504460021C166FFF7F8FA23681B68C4
:103890001A07054617D423681B685B070AD56FF023
:1038A0007E43009300222B464FF480012046FFF711
:1038B000BBFFA0B92023002084F8693084F8680099
:1038C00084F86A300CE06FF07E4300930A460346AA
:1038D0004FF400112046FFF7A7FF0028DBD003209C
:1038E00003B030BD10B5044628B390F8693003F03A
:1038F000FF020BB980F868202268242384F869301D
:10390000136823F0010313602046FFF79DFE012892
:1039100011D023685A6822F490425A609A6822F0C3
:103920002A029A601A6842F0010220461A60BDE835
:103930001040FFF7A5BF012010BDF7B51E4690F857
:103940006930202B0D46044611464AD1002D46D041
:10395000002A44D090F86830012B42D0012380F82F
:1039600068300023C366212380F86930FFF786FAA8
:10397000A4F850100746A4F85210B4F8522092B29E
:1039800062B900963B4640212046FFF74DFF98B9AB
:10399000202384F8693084F868000EE0B4F85220DF
:1039A0000096013A92B2A4F852203B4600228021B0
:1039B0002046FFF739FF10B1032003B0F0BDA36824
:1039C0002268B3F5805F07D123692BB935F8023B34
:1039D000C3F308031385D0E715F8013BFAE701208C
:1039E000EBE70220E9E72DE9F3411E4690F86A3043
:1039F000202B0D46044611465CD1002D58D0002ADC
:103A000056D090F86830012B54D0012380F86830EC
:103A100003684FF0FF321A620023C366222380F846
:103A20006A30FFF72BFAA368A4F85810B3F5805F4B
:103A30008046A4F85A1015D123698BB940F2FF13C0
:103A4000A4F85C30B4F85C70B4F85A0080B280B965
:103A5000202384F86A3084F8680002B0BDE8F08161
:103A6000FF23EDE7002BEDD12369002BF8D07F2356
:103A7000E6E7B4F85A200096013A92B2A4F85A2028
:103A80004346002220212046FFF7CEFEA0B9A268BF
:103A90002368B2F5805F06D1226922B99B8C3B4036
:103AA00025F8023BD0E79B8C3B4005F8013BCBE778
:103AB0000120D2E70220D0E70320CEE70A4A1168AE
:103AC00008B5034609B909491160106869460344FD
:103AD0008B4206D9FCF7A0FB0C2303604FF0FF30AC
:103AE00008BD1360FCE700BFA0020020B002002068
:103AF000002103E00B4B5B58435004310A480B4B49
:103B000042189A42F6D30A4A02E0002313600432B4
:103B1000084B9A42F9D3AFF30080FCF783FBFEF722
:103B200087FBFEE79C3C00080000002064000020AA
:103B300068000020B0020020FEE70000F8B500BFDA
:103B4000F8BC08BC9E467047F8B500BFF8BC08BC7E
:043B50009E467047D6
:103B540030313233343536373839414243444546BF
:103B6400040802000400002000000000000000001F
:103B74000000000000000000000000000000000041
:103B84000000000000000000000000000000000031
:103B94000000000000000000000000000000000021
:103BA4000000000000000000000000000000000011
:103BB4000000000000000000000000000000000001
:103BC40000000000000000005245454E54206D6185
:103BD4006C6C6F6320737563636565646564000072
:103BE4002E2E2F2E2E2F2E2E2F2E2E2F2E2E2F2EEC
:103BF4002E2F2E2E2F2E2E2F6E65776C69622F6C32
:103C04006962632F7374646C69622F72616E642ECF
:103C1400630000002C2066756E6374696F6E3A2031
:103C240000000000617373657274696F6E20222551
:103C34007322206661696C65643A2066696C65204C
:103C4400222573222C206C696E652025642573253A
:103C5400730A0000232D302B20000000686C4C00F8
:103C640065666745464700003031323334353637B0
:103C74003839414243444546000000003031323374
:103C84003435363738396162636465660000000094
:043C9400F90100082A
:043C9800D10100084E
:103C9C000400002000000000AC3B00088C3B000836
:103CAC006C3B000800000000000000000000000059
:103CBC0000000000000000000000000000000000F8
:103CCC0000000000000000000000000000000000E8
:103CDC0000000000000000000000000000000000D8
:103CEC0000000000000000000000000000000000C8
:043CFC0000000000C4
:0400000508003AF1C4
:00000001FF
